:100000000C9462000C948A000C948A000C948A0070
:100010000C948A000C948A000C948A000C948A0038
:100020000C948A000C948A000C948A000C948A0028
:100030000C948A000C948A000C948A000C948A0018
:100040000C9497020C948A000C94DA050C940C061C
:100050000C948A000C948A000C948A000C948A00F8
:100060000C948A000C948A00000000080002010031
:100070000003040700000000000000000102040863
:100080001020408001020408102001020408102002
:10009000040404040404040402020202020203032E
:1000A00003030303000000002300260029000000D2
:1000B0000000250028002B0000000000240027007D
:1000C0002A003C0611241FBECFEFD8E0DEBFCDBF13
:1000D00011E0A0E0B1E0EEE5F3E102C005900D9281
:1000E000A234B107D9F721E0A2E4B1E001C01D922A
:1000F000A13FB207E1F710E0C4ECD0E004C02297C2
:10010000FE010E949A09C23CD107C9F70E948006ED
:100110000C94AD090C940000CF92DF92EF92FF9205
:100120000F931F93E82FF92F05C0015011092109E2
:10013000310961F1908196239417B9F305C00150FC
:1001400011092109310911F1908196239413F7CFF8
:10015000C12CD12CE12CF12C0AC08FEFC81AD80A7F
:10016000E80AF80A0C151D052E053F0579F0808177
:100170008623841791F36C2D7D2D8E2D9F2D1F913D
:100180000F91FF90EF90DF90CF90089560E070E0C6
:1001900080E090E01F910F91FF90EF90DF90CF9063
:1001A000089526E040E855E260E070E084E591E0E3
:1001B0000E94780561E082E00E94FA0360E084E03A
:1001C0000C94FA0361E082E00E9433048AE090E03C
:1001D0000E942C0360E082E00E94330420E432E4B9
:1001E0004FE050E061E084E00E94690422E030E0EA
:1001F00040E050E00E946E09CA01B9010E948808DF
:1002000021E73DE34AE350E40E94ED070E945508D0
:10021000603D27E072078105910544F46093420137
:100220007093430180934401909345016091420192
:1002300070914301809144019091450108954F923E
:100240005F926F927F92AF92BF92CF92DF92EF92C6
:10025000FF920F931F930E94E2000E9488082B01D7
:100260003C018091490190914A010A970CF44CC0DD
:1002700020E030E046E153E4C301B2010E94E90707
:1002800018160CF441C020E030E040EF51E4C30107
:10029000B2010E94E90787FD0FC020E030E046E18F
:1002A00053E4C301B2010E943809181654F0C30187
:1002B000B2010E94550809C06EE170E080E090E054
:1002C00004C066E970E080E090E01F921F921F92E8
:1002D0001F92A12CB12C6501AA9416E9E12EF12CF4
:1002E00000E010E02EE130E040E050E00E94A10785
:1002F000709305016093040181E0809346010F90A3
:100300000F900F900F901DC0809147019091480170
:1003100003970897B0F420E030E048E452E4C301CA
:10032000B2010E94380987FD0CC066E071E084E5E7
:1003300091E00E94DA068091460191E0892780933E
:1003400046018091490190914A010A970CF493C0AB
:1003500020E030E046E153E4C301B2010E94E90726
:1003600018160CF488C064E171E084E591E00E9405
:10037000CD0620E030E040EF51E4C301B2010E941D
:10038000E90787FD0FC020E030E046E153E4C301F8
:10039000B2010E943809181654F0C301B2010E943C
:1003A000550809C06EE170E080E090E004C066E9A5
:1003B00070E080E090E01F921F921F921F9244E62F
:1003C000A42EB12CC12CD12C16E9E12EF12C00E089
:1003D00010E02EE130E040E050E00E94A107AB01C8
:1003E000BC012AE030E084E591E00E948F070F9085
:1003F0000F900F900F9020E030E040EF51E4C301E8
:10040000B2010E94E90787FD0FC020E030E046E11D
:1004100053E4C301B2010E943809181654F0C30115
:10042000B2010E94550809C06EE170E080E090E0E2
:1004300004C066E970E080E090E01F921F921F9276
:100440001F92A12CB12C6501AA9416E9E12EF12C82
:1004500000E010E02EE130E040E050E00E94A10713
:10046000709305016093040181E0809346010F9031
:100470000F900F900F9020E030E048E452E4C30169
:10048000B2010E94E907181684F08091470190910B
:1004900048018E3F910514F4019602C08FEF90E061
:1004A000909348018093470104C010924801109234
:1004B000470120E030E046E153E4C301B2010E946D
:1004C000E907181684F08091490190914A018E3F06
:1004D000910514F4019602C08FEF90E090934A01C9
:1004E0008093490104C010924A0110924901209161
:1004F00046018091040190910501289FB001299F38
:10050000700D112483E00E9472036AE070E080E0C5
:1005100090E01F910F91FF90EF90DF90CF90BF90F0
:10052000AF907F906F905F904F900C9404031F9258
:100530000F920FB60F9211242F933F938F939F9397
:10054000AF93BF9380914C0190914D01A0914E01CA
:10055000B0914F0130914B0123E0230F2D3720F450
:100560000196A11DB11D05C026E8230F0296A11D0D
:10057000B11D20934B0180934C0190934D01A093AA
:100580004E01B0934F018091500190915101A09183
:100590005201B09153010196A11DB11D80935001EC
:1005A00090935101A0935201B0935301BF91AF9129
:1005B0009F918F913F912F910F900FBE0F901F90A1
:1005C00018953FB7F8948091500190915101A091F6
:1005D0005201B091530126B5A89B05C02F3F19F0D9
:1005E0000196A11DB11D3FBF6627782F892F9A2F35
:1005F000620F711D811D911D42E0660F771F881FDC
:10060000991F4A95D1F70895CF92DF92EF92FF920A
:10061000CF93DF936B017C010E94E102EB01C114D7
:10062000D104E104F10489F00E94E8070E94E1028C
:100630006C1B7D0B683E734090F381E0C81AD108B3
:10064000E108F108C851DC4FEACFDF91CF91FF906C
:10065000EF90DF90CF9008958230910538F0880FA9
:10066000991F880F991F05970197F1F708957894BE
:1006700084B5826084BD84B5816084BD85B58260A7
:1006800085BD85B5816085BDEEE6F0E08081816045
:100690008083E1E8F0E01082808182608083808145
:1006A00081608083E0E8F0E0808181608083E1EB1D
:1006B000F0E0808184608083E0EBF0E08081816005
:1006C0008083EAE7F0E080818460808380818260BB
:1006D00080838081816080838081806880831092A4
:1006E000C10008951F93CF93DF93182FEB0161E0B2
:1006F0000E94FA03209711F460E004C0CF3FD105B7
:1007000039F461E0812FDF91CF911F910C94330474
:10071000E12FF0E0E859FF4FE491E330F9F048F4BD
:10072000E130B9F0E230A1F584B5806284BDC8BD86
:1007300034C0E730E9F0E83019F1E43049F5809150
:100740008000806280938000D0938B00C0938A00E9
:1007500024C084B5806884BDC7BD1FC0809180005F
:10076000806880938000D0938900C093880015C072
:100770008091B00080688093B000C093B3000DC03A
:100780008091B00080628093B000C093B40005C037
:10079000C038D1050CF0B5CFAFCFDF91CF911F910D
:1007A0000895833081F028F4813099F08230A1F0EF
:1007B00008958730A9F08830B9F08430D1F4809161
:1007C00080008F7D03C0809180008F7780938000B0
:1007D000089584B58F7702C084B58F7D84BD089558
:1007E0008091B0008F7703C08091B0008F7D80939F
:1007F000B0000895CF93DF9390E0FC01E458FF4FE1
:100800002491FC01E057FF4F8491882349F190E047
:10081000880F991FFC01E854FF4FA591B4918255B0
:100820009F4FFC01C591D4919FB7611108C0F89406
:100830008C91209582238C93888182230AC0623018
:1008400051F4F8948C91322F309583238C938881C6
:10085000822B888304C0F8948C91822B8C939FBF49
:10086000DF91CF9108950F931F93CF93DF931F9242
:10087000CDB7DEB7282F30E0F901E859FF4F84915A
:10088000F901E458FF4F1491F901E057FF4F04912B
:100890000023C9F0882321F069830E94D103698174
:1008A000E02FF0E0EE0FFF1FE255FF4FA591B4914E
:1008B0009FB7F8948C91611103C01095812301C0FA
:1008C000812B8C939FBF0F90DF91CF911F910F9140
:1008D00008950F931F93762F90E0FC01E458FF4F8B
:1008E0006491FC01E057FF4FE4917111762FF0E025
:1008F000EE0FFF1FEC55FF4F8591949189019A01EE
:100900003F70472F0E948C0061157105810591058C
:1009100031F06F5F7F4F8F4F9F4F9F7003C060E03C
:1009200070E0CB011F910F910895FC01818D228D04
:1009300090E0805C9F4F821B91098F7399270895E7
:10094000FC01918D828D981731F0828DE80FF11D99
:10095000858D90E008958FEF9FEF0895FC01918DB4
:10096000828D981761F0828DDF01A80FB11D5D9611
:100970008C91928D9F5F9F73928F90E008958FEF7F
:100980009FEF089582E396E0892B49F080E090E0A4
:10099000892B29F00E94320681110C9400000895E1
:1009A000FC01848DDF01A80FB11DA35ABF4F2C910C
:1009B000848D90E001968F739927848FA689B789DB
:1009C0002C93A089B1898C9180648C93938D848DB4
:1009D000981306C00288F389E02D80818F7D808383
:1009E0000895CF93DF93EC01888D8823C9F0EA89BD
:1009F000FB89808185FD05C0A889B9898C9186FD18
:100A00000FC00FB607FCF5CF808185FFF2CFA88914
:100A1000B9898C9185FFEDCFCE010E94D004E7CF3C
:100A2000DF91CF910895CF92DF92FF920F931F93A2
:100A3000CF93DF931F92CDB7DEB76C0181E0D60173
:100A400058968C9358975B969C915B975C968C918B
:100A50005C97981307C05096ED91FC915197808157
:100A600085FD2EC0F601038D10E00F5F1F4F0F7341
:100A70001127F02EF601848DF81211C00FB607FC75
:100A8000F9CFD6015096ED91FC915197808185FF69
:100A9000F1CFC60169830E94D0046981EBCF838DB9
:100AA000E80FF11DE35AFF4F6083D6015B960C936C
:100AB0005B975296ED91FC915397808180620CC0B8
:100AC000D6015696ED91FC91579760835096ED9123
:100AD000FC91519780818064808381E090E00F9049
:100AE000DF91CF911F910F91FF90DF90CF900895EC
:100AF000BF92CF92DF92EF92FF92CF93DF93EC0100
:100B00006A017B01B22EE889F98982E08083411570
:100B100081EE580761057105A1F060E079E08DE391
:100B200090E0A70196010E944C092150310941092A
:100B300051095695479537952795211580E1380736
:100B400098F0E889F989108260E874E88EE190E015
:100B5000A70196010E944C09215031094109510910
:100B60005695479537952795EC85FD853083EE851D
:100B7000FF852083188EEC89FD89B082EA89FB8984
:100B8000808180618083EA89FB898081886080839D
:100B9000EA89FB89808180688083EA89FB8980817A
:100BA0008F7D8083DF91CF91FF90EF90DF90CF908A
:100BB000BF9008951F920F920FB60F9211242F939A
:100BC0008F939F93EF93FF93E0916401F091650100
:100BD0008081E0916A01F0916B0182FD12C09081E9
:100BE00080916D018F5F8F7320916E01821751F09C
:100BF000E0916D01F0E0EC5AFE4F958F80936D010E
:100C000001C08081FF91EF919F918F912F910F9063
:100C10000FBE0F901F9018951F920F920FB60F9254
:100C200011242F933F934F935F936F937F938F93F1
:100C30009F93AF93BF93EF93FF9384E591E00E945E
:100C4000D004FF91EF91BF91AF919F918F917F91D0
:100C50006F915F914F913F912F910F900FBE0F9029
:100C60001F90189584E591E00E94950421E0892B5E
:100C700009F420E0822F0895109257011092560136
:100C800088EE93E0A0E0B0E0809358019093590182
:100C9000A0935A01B0935B0184E291E090935501D7
:100CA0008093540185EC90E0909361018093600102
:100CB00084EC90E0909363018093620180EC90E07B
:100CC000909365018093640181EC90E090936701BB
:100CD0008093660182EC90E09093690180936801B3
:100CE00086EC90E090936B0180936A0110926D0105
:100CF00010926E0110926F01109270010895089584
:100D00000E9437030E947F060E94D100C2ECD4E00B
:100D10000E941F012097E1F30E94C204F9CFCF92F5
:100D2000DF92EF92FF920F931F93CF93DF937C019B
:100D30006A01EB0100E010E00C151D0571F06991EE
:100D4000D701ED91FC910190F081E02DC70109954B
:100D5000892B19F00F5F1F4FEFCFC801DF91CF91A3
:100D60001F910F91FF90EF90DF90CF900895611544
:100D7000710581F0DB010D900020E9F7AD014150D4
:100D80005109461B570BDC01ED91FC910280F38168
:100D9000E02D099480E090E008950C94B706DC0102
:100DA000ED91FC910190F081E02D099460E371E0F8
:100DB0000C94B7060F931F93CF93DF93EC010E941F
:100DC000B7068C01CE010E94D606800F911FDF91DD
:100DD000CF911F910F9108958F929F92AF92BF92E2
:100DE000CF92DF92EF92FF920F931F93CF93DF93F7
:100DF000CDB7DEB7A1970FB6F894DEBF0FBECDBF5B
:100E00007C01C42EE52FCB01D22E19A221E02D1595
:100E100010F02AE0D22E8E010F5D1F4F8D2C912CE9
:100E2000A12CB12C6C2D7E2FA50194010E944C09A0
:100E30008C2DD29E80191124015011098A3014F48E
:100E4000805D01C0895CF801808321153105410571
:100E5000510521F0C22EE32FCA01E4CFB801C7012A
:100E60000E94B706A1960FB6F894DEBF0FBECDBFA5
:100E7000DF91CF911F910F91FF90EF90DF90CF9076
:100E8000BF90AF909F908F900895CF92DF92EF9296
:100E9000FF920F931F93CF93DF93EC016A017B01C5
:100EA0002115310579F4E881F9810190F081E02D77
:100EB000642FDF91CF911F910F91FF90EF90DF9002
:100EC000CF9009942A303105E9F477FF1AC06DE21A
:100ED0000E94CF068C0144275527BA014C195D09A1
:100EE0006E097F092AE0CE010E94EC06800F911F57
:100EF000DF91CF911F910F91FF90EF90DF90CF90F6
:100F000008952AE0B701A601CE01DF91CF911F918C
:100F10000F91FF90EF90DF90CF900C94EC060F9321
:100F20001F93CF93DF93EC010E9445078C01CE0104
:100F30000E94D606800F911FDF91CF911F910F91D4
:100F400008954F925F926F927F92AF92BF92CF922D
:100F5000DF92EF92FF920F931F93CF93DF93CDB762
:100F6000DEB729013A01621B730B840B950B2989AB
:100F70003A894B895C892A193B094C095D09298BFF
:100F80003A8B4B8B5C8B9B01AC0169897A898B898D
:100F90009C890E943C09E418F50806091709A80174
:100FA00097010E946E092A0D3B1D4C1D5D1DCA0153
:100FB000B901DF91CF911F910F91FF90EF90DF90DA
:100FC000CF90BF90AF907F906F905F904F900895BB
:100FD0000895D9D008F481E008950CD00FC107D14D
:100FE00040F0FED030F021F45F3F19F0F0C0511115
:100FF00039C1F3C014D198F39923C9F35523B1F340
:10100000951B550BBB27AA2762177307840738F077
:101010009F5F5F4F220F331F441FAA1FA9F333D0D6
:101020000E2E3AF0E0E830D091505040E695001C8A
:10103000CAF729D0FE2F27D0660F771F881FBB1F46
:10104000261737074807AB07B0E809F0BB0B802D20
:10105000BF01FF2793585F4F2AF09E3F510568F06C
:10106000B6C000C15F3FECF3983EDCF38695779500
:101070006795B795F7959F5FC9F7880F911D96956E
:10108000879597F90895E1E0660F771F881FBB1FCA
:10109000621773078407BA0720F0621B730B840B77
:1010A000BA0BEE1F88F7E095089504D06894B1114B
:1010B000D9C00895BCD088F09F5790F0B92F9927D8
:1010C000B751A0F0D1F0660F771F881F991F1AF053
:1010D000BA95C9F712C0B13081F0C3D0B1E008951C
:1010E000C0C0672F782F8827B85F39F0B93FCCF39D
:1010F000869577956795B395D9F73EF49095809549
:10110000709561957F4F8F4F9F4F0895E89409C068
:1011100097FB3EF490958095709561957F4F8F4F2A
:101120009F4F9923A9F0F92F96E9BB279395F69540
:10113000879577956795B795F111F8CFFAF4BB0FBE
:1011400011F460FF1BC06F5F7F4F8F4F9F4F16C022
:10115000882311F096E911C0772321F09EE8872FAC
:10116000762F05C0662371F096E8862F70E060E068
:101170002AF09A95660F771F881FDAF7880F9695E1
:10118000879597F90895990F0008550FAA0BE0E885
:10119000FEEF16161706E807F907C0F01216130639
:1011A000E407F50798F0621B730B840B950B39F479
:1011B0000A2661F0232B242B252B21F408950A26DF
:1011C00009F4A140A6958FEF811D811D089597F91F
:1011D0009F6780E870E060E008959FEF80EC0895DD
:1011E00000240A9416161706180609060895002406
:1011F0000A9412161306140605060895092E039480
:10120000000C11F4882352F0BB0F40F4BF2B11F4F3
:1012100060FF04C06F5F7F4F8F4F9F4F089557FD52
:101220009058440F551F59F05F3F71F04795880F54
:1012300097FB991F61F09F3F79F0879508951216EB
:1012400013061406551FF2CF4695F1DF08C0161697
:1012500017061806991FF1CF869571056105089448
:101260000895E894BB2766277727CB0197F908955F
:101270008ADF08F48FEF0895DB018F939F930E941C
:101280008D09BF91AF91A29F800D911DA39F900DDD
:10129000B29F900D11240895A1E21A2EAA1BBB1B28
:1012A000FD010DC0AA1FBB1FEE1FFF1FA217B30732
:1012B000E407F50720F0A21BB30BE40BF50B661F48
:1012C000771F881F991F1A9469F76095709580950C
:1012D00090959B01AC01BD01CF010895052E97FBB0
:1012E0001EF400940E94850957FD07D00E944C0906
:1012F00007FC03D04EF40C94850950954095309529
:1013000021953F4F4F4F5F4F089590958095709571
:1013100061957F4F8F4F9F4F08950E949E09A59F13
:10132000900DB49F900DA49F800D911D11240895E0
:10133000EE0FFF1F0590F491E02D0994A29FB001DC
:10134000B39FC001A39F700D811D1124911DB29FF9
:0E135000700D811D1124911D0895F894FFCF9A
:10135E000100000080004465746563746564207745
:10136E006176650044696D6D656420746F3A200086
:10137E000000000013058F069504AE04A004F104CE
:10138E000D0A006E616E00696E66006F7666002E45
:02139E0000004D
:00000001FF
